:08099D0057656C636F6D650086
:100965007F387E0012098D7F0C7E0012098D7F066F
:0C0975007E0012098D7F017E0002098DBA
:08098D00C2B012093DC2B12203
:08099500D2B012093DC2B122EB
:06090E008B088A09890A2A
:10091400E4F50BF50CF50BF50CAB08AA09A90A854F
:100924000C82850B83120800FF600D120995050CDB
:08093400E50C70E5050B80E104
:01093C002298
:08093D008FA0D2B17F027E0001
:10094500E4FBFAD3EB9FEA9E5015E4FCFD0DBD00D8
:0F095500010CBC03F8BDE9F50BBB00010A80E4FF
:010964002270
:1008CD001209657F017E0012098D7F807E0012095D
:1008DD008D7BFF7A09799D12090E7F0A7E00120920
:1008ED00457FC07E0012098DD2B27F0A7E001209AB
:1008FD0045C2B2AF901208827F017E001209458079
:01090D00E009
:04088200AB07AA0610
:100886007C007D0A12082D8C0A8D0B7C007D0AAF38
:1008960003AE0212082DAA06AB077C007D0A1208D9
:1008A6002D8C088D09AE02AF037C007D0A12082D3F
:1008B600EF2430FF120995E5092430FF120995E56A
:0708C6000B2430FF0209952D
:0300000002098171
:0C098100787FE4F6D8FD75810C0208CDEB
:10080000BB010CE58229F582E5833AF583E02250AD
:1008100006E92582F8E622BBFE06E92582F8E222F7
:0D082000E58229F582E5833AF583E4932211
:10082D00BC000BBE0029EF8DF084FFADF022E4CCAF
:10083D00F875F008EF2FFFEE33FEEC33FCEE9DEC78
:10084D00984005FCEE9DFE0FD5F0E9E4CEFD22EDBE
:10085D00F8F5F0EE8420D21CFEADF075F008EF2F08
:10086D00FFED33FD4007985006D5F0F222C398FDF9
:05087D000FD5F0EA2296
:00000001FF
