:10082D00526F626F7420696E20666F7277617264A9
:10083D0020646972656374696F6E00496E76616CD0
:0B084D00696420636F6D6D616E6400D4
:03087C001208BFA0
:10087F001208DF8F08E508B4660B7BFF7A08792D25
:0E088F0012085880EB7BFF7A0879481208584F
:02089D0080E0F9
:0C08BF00758920759850758DFDD28E2231
:0808D7008F993099FDC29922AE
:060858008B098A0A890BDE
:10085E00E4FDFCAB09AA0AA90B8D828C8312080059
:0D086E00FF600A1208D70DBD00010C80E6E6
:01087B00225A
:0808DF00C2983098FDAF992288
:10089F00E4FBFAD3EB9FEA9E5015E4FCFD0DBD007F
:0F08AF00010CBC03F8BDE9F50BBB00010A80E4A6
:0108BE002217
:030000000208CB28
:0C08CB00787FE4F6D8FD75810B02087CF4
:10080000BB010CE58229F582E5833AF583E02250AD
:1008100006E92582F8E622BBFE06E92582F8E222F7
:0D082000E58229F582E5833AF583E4932211
:00000001FF
